:100000000C308A00C02C0000FF00030E8301A10009
:100010000A08A0008A010408A2007708A300780853
:10002000A4007908A5007A08A60003170D08031399
:10003000A70003170F080313A80003170C080313E6
:10004000A90003170E080313AA00831383128C3030
:100050008400801E2D288C1A54288C308400001CAB
:1000600033280C185728220884002308F700240896
:10007000F8002508F9002608FA00270803178D0064
:100080000313280803178F000313290803178C0094
:1000900003132A0803178E00031320088A00210E79
:1000A0008300FF0E7F0E09008A110A126F288A1141
:1000B0000A12CC280A108A100A11820700340A108A
:1000C0008A100A1182074D34513454345434533455
:1000D00055344234523445344334563400348C1E43
:1000E0006F281808AC001A08F800AC1C7928181200
:1000F00018167808C000013083160317C8001030A6
:10010000C700CA014030C9000130CB004808CD000B
:100110004708CC004D08FA004C08840083137A1875
:100120008317800803199828CC0A0319CD0A8A2856
:100130004A08FA004908840083137A188317800854
:100140000319BC284B08003C0318BC28490884004C
:1001500083134A1883170008D0004C0884008313C7
:100160004D18831750088000CC0A0319CD0AC90A1C
:100170000319CA0ACB0398284C08840083134D182E
:10018000831780014708F8004808F9008312031319
:100190008C128A110A1233280C108E010B308F003A
:1001A000DC308E000000C10A0319C20A0C108A114B
:1001B0000A123328412A45180D050000412AAB26B2
:1001C000512A542855213D182C11F332EE396F393C
:1001D000F317E43A733A2216A212AE1966112C19DB
:1001E000AC180D050000412AAB26512A5428552190
:1001F0003D182C11F332EE396F39F317E83AED342C
:10020000E434F43C2216A21266112C19AC180D0528
:100210000001412AAB26512A542855213D182C11A2
:10022000F332EE396F39F317F4326D386539613ACC
:10023000753965112C11253322163216B1060A00C4
:10024000412AAB21D729D420D422BF060A00412A53
:10025000AB21D729D420D422BF060A00412AAB26DD
:10026000512AD4214F27CE1F0D050001412AAB266C
:10027000512AD421CC2241273D180D050001412AE5
:10028000AB26512AD42AD322D221C6233D18AC183A
:100290002C11E539701C321BB616B01873112C11D5
:1002A000E4306E112C11311933112C182C182C112B
:1002B000A2060A00412AAB26512AD4214F27CE1E7E
:1002C0003016A2183817B119361731183717381CDD
:1002D0002216311CB819AC180D050001412AAB26B5
:1002E000512AD4214F27CE1E3016A2183817B11923
:1002F000361731183717381C2216311CB819AC18AC
:100300000D050001412AAB26512AD42955213D185B
:100310002C11E131F43A613A6F39F317E6306E117E
:100320002C180D050000412AAB26512A54285521CE
:100330003D182C11733A613AF5392F336137221683
:100340002239753722163216B0060A00412AAB262A
:10035000512A542855213D182C11733A613AF53928
:100360002F3361372216A239F43770112C192C184B
:100370000D050001BE308400831700080319CD2944
:100380000630F800F701F70BC329F80BC2297B30C0
:10039000F700F70BC929800BC02908000B0883164A
:1003A0000317B000831203138B13831603178C17E4
:1003B0000C1400000000B01FE229831203138B17F6
:1003C0008316031783120C087F3903193A2A831600
:1003D000B00083120D088316B10083120F08831634
:1003E000B2003008831203130C1EF42999008316FF
:1003F0000317310883128D008316320883128F0091
:1004000003130B0883160317B300831203138B1314
:10041000831603178C170C1400000000B31F152A55
:10042000831203138B178316031783120C0D0E0D03
:100430007F3903193A2A8316B00083120D088316F8
:10044000B10083120F088316B20030088312031321
:100450000C1E282A990083160317310883128D0079
:100460008316320883128F008D0A03198F0A031333
:10047000CE29031703130800831603173F08FA0059
:100480003E08840083137A18831780080319882A8A
:100490003F08C3003E08C2004108C5004008C40030
:1004A0004508FA004408840083137A1883178008EB
:1004B0000319752A4308FA004208840083137A1846
:1004C00083170008C6004508FA0044088400831317
:1004D0007A18831700084602031D752AC20A0319F9
:1004E000C30AC40A0319C50A502A4508FA00440879
:1004F000840083137A1883178008031D842A3E081A
:10050000F8003F08F9008B2ABE0A0319BF0A3E2AE9
:100510000030F800F9008312031308004F308316EF
:100520000317B0004B30B1000D30B2000A30B300F9
:10053000B4014530B5005230B600B7004F30B800B6
:100540005230B9000D30BA000A30BB00BC013D107A
:100550008312031340080A3C031DE32A013083166B
:100560000317BF001030BE000130C100B030C00022
:10057000831203133C22790883160317BF007808FF
:10058000BE00BE08031DC72ABF080319CA2A3D14AE
:10059000E62AE12A0130BF001030BE000130C10060
:1005A000B530C000831203133C2279088316031769
:1005B000BF007808BE00BE08031DE02ABF08031D67
:1005C000E62A83120313AA2A831603170A30BE00F1
:1005D00083120313BA210030831603173D1801302C
:1005E000F800831203130800433083160317A30097
:1005F0005730A4005330A5005430A6004130A70066
:100600005430A8004530A9003A30AA003230AB007F
:10061000AC01AD01AE011030840083172D088407B2
:100620002E08831203135A208000003803191F2B51
:1006300083160317AE0AAD0A0B2B83120313203067
:1006400003178D0001308F000313CE218E2201305D
:1006500083160317BF001030BE000130C100A33065
:10066000C000831203133C22790883160317AE00DF
:100670007808AD00AD08031D6C2BAE08031D6C2B74
:100680001430AD00FA30BE0083120313BA21831672
:100690000317AD0B422BAD01AE0110308400831760
:1006A0002D0884072E08831203135A208000003877
:1006B0000319612B83160317AE0AAD0A4D2B831263
:1006C0000313273003178D0001308F000313CE2151
:1006D0008E22272B8316031703130610831206148A
:1006E000080083160317B001B1011030840083178E
:1006F000300884073108831203135A208000003821
:100700000319892B83160317B10AB00A752B8312BC
:1007100003132E3003178D0001308F000313CE21F9
:100720008E224D3083160317A3005130A40054309D
:10073000A500A6004330A7004F30A8004E30A90006
:10074000AA003A30AB003030AC002C30AD0036306F
:10075000AE00AF010130BF001030BE000130C1005B
:10076000A330C000831203133C22790883160317B9
:10077000B1007808B000B008031DC12BB1080319FF
:10078000C82B0313061183120615792C8316031741
:10079000B001B1011030840083173008840731089C
:1007A000831203135A20800000380319DE2B8316AE
:1007B0000317B10AB00ACA2B83120313363003178A
:1007C0008D0001308F000313CE218E228316031774
:1007D000B001B1011030840083173008840731085C
:1007E000831203135A20800000380319FE2B83164E
:1007F0000317B10AB00AEA2B831203133F30031721
:100800008D0001308F000313CE218E228316031733
:10081000B001B1011030840083173008840731081B
:10082000831203135A208000003803191E2C8316EC
:100830000317B10AB00A0A2C831203135A300317A4
:100840008D0001308F000313CE218E22F808031D86
:10085000552C143083160317B000FA30BE008312F3
:100860000313BA2183160317B00B2D2CB001B1016D
:100870001030840083173008840731088312031373
:100880005A208000003803194C2C83160317B10A34
:10089000B00A382C831203136E3003178D00013019
:1008A0008F000313CE218E22252C83160317B0014F
:1008B000B101103084008317300884073108831297
:1008C00003135A208000003803196D2C8316031778
:1008D000B10AB00A592C83120313823003178D001A
:1008E00001308F000313CE218E228316061183124E
:1008F000061508004D308316031790005130910003
:1009000054309200930044309400493095005330A5
:100910009600433097004F3098004E3099009A006F
:1009200045309B0043309C0054309D0045309E0074
:1009300044309F00A0010130BF001030BE000130E4
:10094000C1009030C000831203133C2279080317C2
:10095000ED007808EC00EC08031DB12CED0803193C
:10096000B92C83160313860183128601F4227123A6
:100970000317EC01ED019030840083176C088407A5
:100980006D0803135F20800000380319CC2C031777
:10099000ED0AEC0ABB2C0313013083160317BF00CA
:1009A0001030BE000130C1009030C000831203132C
:1009B0003C2279080317EB007808EA00EA08031DD7
:1009C000E42CEB080319232D64308316BE00831238
:1009D0000313BA21203003176A07840083136B18AE
:1009E00083170008313C031D032D831603130811E0
:1009F00083120815933003178D0001308F00031305
:100A0000CE210F2D0317831603130811831208112B
:100A1000A63003178D0001308F000313CE218E22E4
:100A20000317EC01ED011030840083176C08840774
:100A30006D0803135A20800000380319242D031772
:100A4000ED0AEC0A132D0313080003308316031775
:100A50009902031C352D993084008317000803196F
:100A6000352D332D332D800B322D831203130800C7
:100A70008E30F700831603171B08F8001A08F900D8
:100A8000FA01F808031D4E2D7908F800F901083025
:100A9000F702F808031D4E2DF701562D0310F81B21
:100AA000552DF90DF80DF7034E2DF813831203138E
:100AB00008008316031718080319CB2DA0001C0883
:100AC0000319CB2DA00703186C2D7F30A002031C47
:100AD000CB2D0319CB2D702D8130A0070318CB2D02
:100AE0002008F700F801F901FA011908A400A41779
:100AF0001A08A3001B08A2001830A000A101221CA4
:100B0000992D1F08FA07031C8B2DF90A031D8B2D45
:100B1000F80A0319A1171E08F907031C922DF80AF9
:100B20000319A1171D089A009A171A08F807031845
:100B3000A117A10DF80CF90CFA0CA40CA30CA20C33
:100B40000310A00B7E2D0130F7070318CB2DF81BE7
:100B5000B02DA40DFA0DF90DF80DF7030319CB2DE7
:100B6000A41FC12DFA0A031DC12DF90A031DC12DB1
:100B7000F80A031DC12DF80CF90CFA0CF70A031939
:100B8000CB2D1908A1001D08A106A11FC92DF8171A
:100B9000CF2DF813CF2DF701F801F901FA018312D7
:100BA000031308008030831CDA2D83160317A10677
:100BB0008312031383160317A601A7011D08A500BE
:100BC0002108A5061C080319C92EA400F700200857
:100BD0000319D22EA40203196E2E031C2C2E2108F9
:100BE000AA00AA172208A9002308A800A701031039
:100BF000AA0CA90CA80CA70CA40BF62DA51F032E5C
:100C00002614E62E2610241026169F308400831703
:100C1000FB2E2612A51B162E241C212EAA0CA90C75
:100C2000A80CA70CF70A0319E12E212EAA1B242ECB
:100C30000310A70DA80DA90DAA0DF7030319E12EA6
:100C4000162E26178E2E26131D08A500A51F2A2E48
:100C5000AA17DA2EAA13DA2E2008A400F7001C081F
:100C6000A4021D08AA00AA171E08A9001F08A800B0
:100C7000A7010310AA0CA90CA80CA70CA40B382ED2
:100C8000A51F452EA614E62EA6102410A616A330E6
:100C900084008317FB2EA612A51B582E241C632E3E
:100CA000AA0CA90CA80CA70CF70A0319E12E632EB5
:100CB000AA1B662E0310A70DA80DA90DAA0DF703F8
:100CC0000319E12E582EA6178E2EA6132108A50073
:100CD000A51F6C2EAA17DA2EAA13DA2E2108AA0055
:100CE000AA172208A9002308A800A51F7B2EAA1373
:100CF0002615E62E2611A70124109F3084008317A5
:100D0000FB2EA51BA42E1D08A500241C8E2EAA0CAC
:100D1000A90CA80CA70CF70A0319E12EA71F9F2EF8
:100D2000A80A031D9F2EA90A031D9F2EAA0A031DB0
:100D30009F2EAA0CA90CA80CF70A0319E12E261B5A
:100D4000232EA61B652EC32E8030AA06AA1FAC2E0A
:100D5000E62E2108A500B92E1D08A500AA08031D2E
:100D6000B92EA908031DB92EA808031DB92EF70135
:100D7000DA2EAA1BC32E0310A70DA80DA90DAA0DCC
:100D8000F70BB92EE12EA51FC72EAA17DA2EAA132C
:100D9000DA2E2008F7002108AA002208A90023085B
:100DA000A800DA2E1C08F7001D08AA001E08A900DA
:100DB0001F08A8002A08F8002908F9002808FA00E6
:100DC000192FF701F801F901FA01192FA701A80954
:100DD000A909AA09A709A70A031DF42EA80A031D39
:100DE000F42EA90A0319AA0A2618022EA618442EC0
:100DF00026197A2EA92E0008A807031C052FA90A78
:100E0000031D052FAA0A0319241484030008A90747
:100E1000031C0D2FAA0A0319241484030008801F41
:100E2000803AAA0703182414261A092EA61A4B2E54
:100E3000812E831203130800831603171908A000DC
:100E40001D08A006A01F292F03110310991B0314CE
:100E50005C2F1908A0001C08A1001808A1020319A2
:100E6000372FA01F5C2F0308013A83005C2F1D0859
:100E7000A1001908A1020319432FA01F5C2F03082A
:100E8000013A83005C2F1E08A1001A08A102031971
:100E90004F2FA01F5C2F0308013A83005C2F1F080F
:100EA000A1001B08A10203195B2FA01F5C2F0308E0
:100EB000013A83005C2F03108312031308000B0810
:100EC0000317EB0003138B13831603178C170C14F3
:100ED000000000008312EB1F702F03138B17031702
:100EE0000318982F0C087F39EB000D08EC000F0851
:100EF000ED006B0803130C1E7B2F990003176C0881
:100F00008D006D088F0003130B080317EE00031309
:100F10008B13831603178C170C1400000000831228
:100F2000EE1F952F03138B170317EA0B982FB32F80
:100F30000C0D0E0D7F39EB000D08EC000F08ED00D5
:100F40006B0803130C1EA22F990003176C088D0069
:100F50006D088F008D0A03198F0A0310EA0BB12F59
:0A0F6000B32F03135F2F03130800E3
:101000008316051183120511023083160317980009
:101010008B3099008A118312031325258A158316B4
:101020000317980B0828831203139F149F18162880
:101030001E08F90083161E08F8007908FA001E0839
:1010400003179A0079089B008A118312031338252D
:101050008A157A080317ED007908EC007808EB0090
:101060007708EA004230F700F70B342800008316B7
:101070000313051183120515093083160317BE00EB
:101080008A1183120313BA218A15043083160317B9
:101090009800A93099008A118312031325258A1517
:1010A00083160317980B492883126D0883169B003B
:1010B00083126C0883169A0083126B0883169900BA
:1010C00083126A08831698000A309F0028309E0019
:1010D00020309D0077309C008A118312031359251C
:1010E0008A157A0883160317930079089200780806
:1010F0009100770890007B309B0014309A002E30CE
:1011000099007C30980013089F0012089E00110877
:101110009D0010089C008A118312031359258A151B
:101120007A08831603179B0079089A0078089900BB
:101130007708980083141B089F001A089E0019085E
:101140009D0018089C00CD30A300CC30A2004C308C
:10115000A1007B30A0008A1183120313D2258A15C7
:101160007A08831603179700790896007808950087
:101170007708940017089B0016089A001508990034
:10118000140898009F019E019D019C018A11831201
:1011900003131C278A15031CD528831603179701F0
:1011A0009601950194018312031383160317140803
:1011B000F7001508F8001608F9001708FA000313DD
:1011C00083128A150A12692D831603171E08031944
:1011D000AB29AA0022080319AB29AA02031CF5288F
:1011E0007F30AA070318AB29FB288130AA02031C11
:1011F000AB290319AB292A08F700F801F901FA0114
:10120000A9011F08A800A8172008A7002108A60008
:101210001930AA002508A60203181E290130A702CA
:1012200003181E29A80203181E29A90203181E2943
:10123000A90AA80AA70A2508A60750292408A70270
:10124000031839290130A80203183929A902031803
:101250003929A90AA80A2408A7072508A607031CF4
:101260005029A70A031D5029A80A031D5029A90ABD
:10127000502923088038A80203184F290130A902F9
:1012800003184F29A90A23088038A8072408A707AC
:10129000031C2D29A80A031D2D29A90A2D297A141A
:1012A000AA0B53295E290310A60DA70DA80DA90DA1
:1012B0000310FA0DF90DF80DAB0D0A292B1C662948
:1012C0000310F80CF90CFA0CAB0C6929F70303199D
:1012D000AB29AB1B92290310A60DA70DA80DA90DD4
:1012E0002508A60203187E290130A70203187E29CB
:1012F000A80203187E29A902031CA1292408A70219
:10130000031889290130A80203188929A902031C9E
:10131000A12923088038A802031892290130A902C4
:10132000031CA129FA0A031DA129F90A031DA129F9
:10133000F80A031DA129F70A0319AB29F80CF90CC7
:10134000FA0C1F08AA002308AA06AA1FA929F81741
:10135000AF29F813AF29F701F801F901FA01831257
:10136000031308008318B729A03084008317F701FE
:10137000F801F901FA0183160317A001A101A201E6
:10138000A3011F081E041D041C040319F7292030A3
:10139000A4000310980D990D9A0D9B0DA00DA10DA1
:1013A000A20DA30D1F082302031DE0291E0822021F
:1013B000031DE0291D082102031DE0291C0820024D
:1013C000031CF1291C08A0021D08031C1D0FA1020B
:1013D0001E08031C1E0FA2021F08031C1F0FA302DE
:1013E0000314F70DF80DF90DFA0DA40BC929200807
:1013F0008000840A21088000840A22088000840A70
:1014000023088000831203130800040883160317BF
:10141000900083126E08831692000319362A8312F5
:101420006D0883169B0083126C0883169A00831242
:101430006B088316990083126A08831698009F012F
:101440009E0120309D0082309C008A11831203137C
:1014500059258A157A080317ED007908EC007808F9
:10146000EB007708EA008316920B0F2A83126D08AF
:1014700083169B0083126C0883169A0083126B08F4
:101480008316990083126A08831698001808B63CE0
:101490009800FA0119089C0099170310990C9A0CEE
:1014A0009B0CFA0CF90CF80CF70C980B4D2A9C1FAE
:1014B000642AF709F809F909FA09F70A0319F80A79
:1014C0000319F90A0319FA0A7A088312ED00790858
:1014D000EC007808EB007708EA00ED1F7E2A8316FF
:1014E000900390168312EA09EB09EC09ED09EA0A68
:1014F0000319EB0A0319EC0A0319ED0A3B308316B2
:1015000097009A309600CA30950094010A309200F4
:1015100083126E08031D8F2A8316900A8312831488
:101520006A30840083176D0883169B0083126C0851
:1015300083169A0083126B088316990083126A0837
:101540008316980017089F0016089E0015089D0036
:1015500014089C0083120313B2217808F708031DB6
:10156000CB2A03176E0A83161202031DBA2A8312AE
:101570000313CB2A10080319CF2A0F3912020319BB
:10158000C32A03181F2B901B1F2B101BCF2A2030A0
:10159000162B831203132030831603179005901E19
:1015A000E72A901283126E080319D92A8316900332
:1015B00083127708831690002D30831203130C1EBC
:1015C000DF2A9900831603171008F7009001831291
:1015D0006E0883161202031DFC2A770890002E3035
:1015E000831203130C1EF22A9900831603171008A6
:1015F000F7002030900500303030901E162B9012EE
:1016000083126E080319072B831690038312770841
:10161000831690002D30831203130C1E0D2B99009E
:10162000831603171008F70090013030F70777088A
:10163000831203130C1E1A2B9900831603178310B1
:1016400017089B0016089A001508990014089800BE
:101650009F019E019D010A309C0083120313B22159
:101660007A08831603179700790896007808950082
:1016700077089400920B3D2B3F2B83128F2A831205
:101680000313080083160810081083120810123084
:1016900083160317BE008A1183120313BA218A1519
:1016A00083160810831208143130F700F70B562BFD
:1016B000592B83160814081483120818642B8530DC
:1016C000F700F70B612B652BBD2C831608148312D2
:1016D000081C6F2B8530F700F70B6C2B702BBD2C83
:1016E0000317EF01EE01831691019001920193011E
:1016F0001308273C031CDE2B03130814831208185D
:10170000862B831603177C2B831203138316031770
:101710009401031308148312081C942B83160317D7
:10172000940A892B831203138316031713080F3CA3
:10173000031CAE2B0310100D9800110D9900140816
:10174000133C031CA62BFA010030A82BFA01013030
:10175000180490007A0819049100DA2B13081F3C32
:10176000031CCE2B031083126E0D83169800831278
:101770006F0D831699001408133C031CC22BFA0149
:101780000030C42BFA01013018048312EE007A08ED
:10179000831619048312EF00DB2B83160310120D3E
:1017A00098001408133C031CD72B0030D82B0130B1
:1017B0001804920083128316930A782B95019601E0
:1017C0001608033C031C1A2C1608013C031CFD2BB5
:1017D000160DF700F70DF70DF830F7051108FA00B0
:1017E0001008F900F7080319FA2B0310FA0CF90C8A
:1017F000F70BF52B79089700162C02301602F7002C
:10180000F70DF70DF70DF830F705770883126F081D
:10181000FA006E08F900F7080319132C0310FA0CEC
:10182000F90CF70B0E2C790883169700170895070B
:10183000960AE02B120815020319232C83120313B6
:10184000BD2C8316031783126B08FA006A08840004
:1018500083136B188317831611089B0010089A00D6
:101860008A118312031338258A157A088316031701
:101870009D0079089C0078089B0077089A001D0855
:10188000A1001C08A0001B089F001A089E00A501CB
:10189000A4012030A3008230A20083120313E420AD
:1018A00077088000840A78088000840A790880001C
:1018B000840A7A08800003176D08FA006C08840017
:1018C00083136D1883176F08073C0318872C0030AB
:1018D0006E02F7006F08FA000830031C0930FA02A4
:1018E0007708003CF7007A08031C7A0F792C003047
:1018F0007A2C003CFA00770883169A007A089B003D
:101900008A118312031338258A15932C03176F0845
:1019100083169B0083126E0883169A008A11831225
:10192000031338258A157A08831603179D00790852
:101930009C0078089B0077089A001D08A1001C08ED
:10194000A0001B089F001A089E00A501A4012030DA
:10195000A3008230A20083120313E42077088000E2
:10196000840A78088000840A79088000840A7A084A
:10197000800083160810831208148A150A12842E18
:1019800003081F398300AC0183160317871508303D
:101990000313990002309A00A63098009030831209
:1019A0009800B201B101B001AF01B601B501B401B7
:1019B000B301B701BB01BA01B901B801BF01BE0152
:1019C000BD01BC01C201C101C401C30183160317DB
:1019D0000908C039890003131F129F120030031732
:1019E0008800831287018801890183130313AD01E5
:1019F000AE010317900183160908C039890003134B
:101A00001F129F12013003178800831203131F1740
:101A10009F1783169F1783121F143530900083166B
:101A20000C1483120C1083168C16C03083128B0496
:101A30000030831686008601831286018316880093
:101A4000081083120814831605111430831203172B
:101A5000EA00FA308316BE008A1183120313BA21FA
:101A60008A150317EA0B292DDA308D0000308F001C
:101A70008A110313CE218A158A118E228A158A11A2
:101A8000F4228A158A1171238A1504300317EA009B
:101A9000FA308316BE008A1183120313BA218A1505
:101AA0000317EA0B482D03138E010B308F00DC3037
:101AB0008E0000008A117A248A15C208031D642D45
:101AC0004108C83C0318AE2D3708633C031CAE2DFB
:101AD00000280317EB010408EA006B10831B6B144A
:101AE000831003133608831603179F008312031312
:101AF0003508831603179E008312031334088316D8
:101B000003179D00831203133308831603179C00E9
:101B10007A08A3007908A2007808A1007708A0003D
:101B20008A1183120313D2258A1503176A088400C9
:101B300083136B1883177A080313B6007908B5006E
:101B40007808B4007708B300283083160317BE0066
:101B50008A1183120313BA218A15B70A4208013C7D
:101B6000031CB82D031DB72D41082B3C03185A2D1B
:101B70000317EA01EB011030840083176A08840719
:101B80006B088A1103135A208A1580000038031944
:101B9000CE2D0317EB0AEA0ABB2D03138316031796
:101BA0009B01831203133708831603179A008A11C7
:101BB0008312031338258A15360883160317A100EC
:101BC00083120313350883160317A000831203132F
:101BD0003408831603179F008312031333088316F8
:101BE00003179E007A08A5007908A4007808A300CE
:101BF0007708A20083120313E4207A08B60079085C
:101C0000B5007808B4007708B300831603179B016A
:101C10009A0199019801831203133608831603175A
:101C20009F00831203133508831603179E00831247
:101C300003133408831603179D008312031333081C
:101C4000831603179C008A11831203131C278A151D
:101C5000031C322E3608B2003508B1003408B0003B
:101C60003308AF00DE3003178D0000308F00031003
:101C70001D30EA008A1103135F278A15893084001A
:101C800032080317ED00031331080317EC000313A8
:101C900030080317EB0003132F080317EA00033083
:101CA000EE0003130522EE3003178D0000308F0085
:101CB00003140730EA008A1103135F278A158A117B
:101CC0008E228A158A117A248A150317EA01EB01FC
:101CD0001030840083176A0884076B088A11031385
:101CE0005A208A158000003803197B2E0317EB0A4F
:101CF000EA0A682E03130317EB013830EA00ED01FE
:101D00003C30EC000313422BF33003178D000030FE
:101D10008F0003102130EA008A1103135F278A1510
:101D2000893084003B080317ED0003133A080317BA
:101D3000EC00031339080317EB00031338080317EB
:101D4000EA000230EE0003130522043003178D0071
:101D500001308F0003140730EA008A1103135F2754
:101D60008A158A118E228A158A117A248A150317F8
:101D7000EA01EB011030840083176A0884076B08BE
:101D80008A1103135A208A15800000380319CD2EBA
:101D90000317EB0AEA0ABA2E0313093003178D0062
:101DA00001308F0003102430EA008A1103135F27EB
:101DB0008A15893084003F080317ED0003133E089D
:101DC0000317EC0003133D080317EB0003133C0853
:101DD0000317EA000230EE00031305221C3003173C
:101DE0008D0001308F0003100730EA008A110313C1
:101DF0005F278A158A118E228A158A117A248A15FC
:101E00000317EA01EB011030840083176A08840786
:101E10006B088A1103135A208A15800000380319B1
:101E2000162F0317EB0AEA0A032F0313B601B501B5
:101E3000B401B301B701C201C1018A110C148A15A2
:041E40005A2D6300B4
:04400E00E22CFF3F62
:00000001FF
;PIC16F887
;CRC=A879  CREATED="19-Thg4-23 00:59"
